:020000040800F2
:1000000000100020E1080008650500086F050008E1
:1000100000000000000000000000000000000000E0
:10002000000000000000000000000000750500084E
:1000300000000000000000007F050008890500089E
:1000400031090008000000003109000831090008EA
:100050003109000831090008310900089705000836
:1000600000000000310900083109000831090008CA
:1000700031090008A9050008C105000800000000BA
:1000800031090008000000000000000031090008EC
:10009000000000003109000831090008310900089A
:1000A00000000000310900080000000031090008CC
:1000B0000000000000000000000000000000000040
:1000C00010B5064C2378002B07D1054B002B02D02E
:1000D000044800E000BF0123237010BD0C00002085
:1000E00000000000282F0008044B10B5002B03D09F
:1000F0000349044800E000BF10BDC04600000000F6
:1001000010000020282F0008002243088B4274D3DF
:1001100003098B425FD3030A8B4244D3030B8B4208
:1001200028D3030C8B420DD3FF22090212BA030C11
:100130008B4202D31212090265D0030B8B4219D3F2
:1001400000E0090AC30B8B4201D3CB03C01A524112
:10015000830B8B4201D38B03C01A5241430B8B425A
:1001600001D34B03C01A5241030B8B4201D30B0343
:10017000C01A5241C30A8B4201D3CB02C01A52416A
:10018000830A8B4201D38B02C01A5241430A8B422D
:1001900001D34B02C01A5241030A8B4201D30B0216
:1001A000C01A5241CDD2C3098B4201D3CB01C01A30
:1001B000524183098B4201D38B01C01A524143093A
:1001C0008B4201D34B01C01A524103098B4201D328
:1001D0000B01C01A5241C3088B4201D3CB00C01A95
:1001E000524183088B4201D38B00C01A524143080D
:1001F0008B4201D34B00C01A5241411A00D2014632
:10020000524110467047FFE701B5002000F006F8A4
:1002100002BDC0460029F7D076E770477047C04658
:1002200090B589B000AF0C243B19180014231A00B4
:10023000002102F071FE4C4B5A694B4B8021C903DF
:100240000A435A61484B5A698023DB031340BB6061
:10025000BB68454B5A69444B802189020A435A6165
:10026000414B5A6980239B0213407B607B683E4B65
:100270005A693D4B8021C9020A435A613A4B5A6977
:100280008023DB0213403B603B689023DB050022A8
:10029000C021180000F03FFE344B0022022118005C
:1002A00000F039FE3B1903221A603B1903225A6001
:1002B0003B1900229A603B192D4A1900100000F0EA
:1002C0009DFC3B192B4A1A603B1903225A603B19CB
:1002D00000229A603A199023DB051100180000F003
:1002E0008DFC3B1920221A603B19234A5A603B19A6
:1002F00001229A603A199023DB051100180000F0E2
:100300007DFC3B19C0221A603B1901225A603B193F
:1003100000229A603B190022DA603A199023DB052B
:100320001100180000F06AFC21007B1802221A60FC
:100330007B1801225A607B1800229A607B180022E9
:10034000DA607B18094A1900100000F057FC0022FF
:100350000021072000F020FC072000F032FCC046FE
:10036000BD4609B090BDC0460010024000040048E0
:10037000001400481F6000000000211080B500AF8D
:1003800000F0D8FA00F012F8FFF74AFF00F02AF95F
:1003900000F010FA044B0221180000F0D9FD3220C1
:1003A00000F02CFBF6E7C0460004004890B595B07D
:1003B00000AF20243B19180030231A00002102F05E
:1003C000ABFD1023FB18180010231A00002102F0C7
:1003D000A3FD3B00180010231A00002102F09CFD31
:1003E00021007B1802221A607B180122DA607B1838
:1003F00010221A617B1802221A627B1800225A62AC
:100400007B18A02292039A627B180022DA627B1882
:10041000180000F0D5FD031E01D000F079F810217E
:100420007B1807221A607B1802225A607B18002270
:100430009A607B180022DA607B180121180001F015
:10044000DBF8031E01D000F063F83B0001221A60C4
:100450003B0000229A603B00180001F01FFA031EC7
:1004600001D000F055F8C046BD4615B090BD000063
:1004700080B582B000AF0200BB1D1A80BB1D1B8877
:10048000202B1CD19023DB052021180000F026FD35
:10049000031E0FD100F0A8FA02000B4B1B68D21A02
:1004A000FA235B009A4205D99023DB05402118000E
:1004B00000F04EFD00F098FA0200034B1A60C046AF
:1004C000BD4602B080BDC0462800002080B582B085
:1004D00000AF78609023DB0501228021180000F036
:1004E0001AFD094B180000F0E3F99023DB05002208
:1004F0008021180000F00FFD044B180000F0D8F91F
:10050000C046BD4602B080BD402F0008502F0008F5
:1005100080B500AFC046BD4680BD000080B582B04A
:1005200000AF0F4B9A690E4B01210A439A610C4BA5
:100530009B69012213407B607B68094BDA69084B99
:10054000802149050A43DA61054BDA6980235B059E
:1005500013403B603B68C046BD4602B080BDC0460C
:100560000010024080B500AFC046BD4680BD80B5DA
:1005700000AFFEE780B500AFC046BD4680BD80B588
:1005800000AFC046BD4680BD80B500AF00F01AFA8E
:10059000C046BD4680BD80B500AF202000F0F4FC11
:1005A000C046BD4680BD000080B500AF034B1800BB
:1005B00001F0C4FAC046BD4680BDC0462C000020F4
:1005C00080B500AF034B180001F0B8FAC046BD4635
:1005D00080BDC0462C00002080B500AFC046BD469F
:1005E00080BD000080B596B000AF4823FB1818000E
:1005F00010231A00002102F08FFC4023FB18180082
:1006000008231A00002102F087FC2423FB1818009D
:100610001C231A00002102F07FFC3B1D1800202340
:100620001A00002102F078FC444B454A1A60434B03
:10063000444A5A60414B00229A60404B6422DA607F
:100640003E4B00221A613D4B00225A613B4B8022F7
:100650009A613A4B180001F0EFF9031E01D0FFF741
:1006600057FF48217B18802252011A607A18334BB9
:100670001100180001F0C6FB031E01D0FFF748FF70
:100680002E4B180001F026FA031E01D0FFF740FFA1
:1006900040217B1800221A607B1800225A607A18C9
:1006A000264B1100180001F071FF031E01D0FFF767
:1006B0002FFF24217B1800221A607B1800225A6029
:1006C0007B1800229A607B180022DA607B180022D7
:1006D0001A617B1800225A617B1800229A617918EE
:1006E000164B0022180001F03FFB031E01D0FFF75C
:1006F0000FFF3B1D00221A603B1D00225A603B1D6C
:1007000000229A603B1D0022DA603B1D00221A6124
:100710003B1D802292015A613B1D0022DA613A1D85
:10072000064B1100180001F083FF031E01D0FFF7F4
:10073000EFFEC046BD4616B080BDC0462C0000206E
:10074000002C014080BB000080B584B000AF786011
:100750007B681B68144A934221D1144B9A69134B4E
:10076000802109010A439A61104B9A6980231B0179
:100770001340FB60FB68002200210D2000F00CFA02
:100780000D2000F01EFA002200210E2000F004FAD5
:100790000E2000F016FA064B180001F079F9C04659
:1007A000BD4604B080BDC046002C01400010024090
:1007B0002C00002080B500AF144B154A1A60134B73
:1007C000E12252025A60114B00229A600F4B002224
:1007D000DA600E4B00221A610C4B0C225A610B4B53
:1007E00000229A61094B0022DA61084B00221A624A
:1007F000064B00225A62054B180001F087FF031ECA
:1008000001D0FFF785FEC046BD4680BD6C000020CC
:100810000038014080B58AB000AF78601423FB181F
:10082000180014231A00002102F076FB7B681B6875
:100830001D4A934233D11D4B9A691C4B8021C9013B
:100840000A439A61194B9A698023DB0113403B618B
:100850003B69164B5A69154B802189020A435A613C
:10086000124B5A6980239B021340FB60FB681421E2
:100870007B18C022D2001A607B1802225A607B18B3
:1008800000229A607B180322DA607B1801221A6129
:100890007A189023DB051100180000F0AFF9C0466C
:1008A000BD460AB080BDC04600380140001002407D
:1008B00080B582B000AF786008E079684B1C7B603F
:1008C000FA239B000548012201F074FF7B681B7826
:1008D000002BF2D1C046BD4602B080BD6C000020A6
:1008E0000D4885460D480E490E4A002302E0D458B3
:1008F000C4500433C4188C42F9D30B4A0B4C002368
:1009000001E013600432A242FBD3FFF765FE02F060
:10091000DFFAFFF733FDFEE70010002000000020A3
:100920000C000020A02F00080C000020F000002088
:10093000FEE7000080B500AF074B1A68064B102198
:100940000A431A60002000F009F8FFF7E7FD0023D2
:100950001800BD4680BDC0460020024090B583B05F
:1009600000AF7860144B1C68144B1B781900FA23F5
:100970009800FFF7C9FB030019002000FFF7C4FB34
:100980000300180000F02DF9031E01D001230FE031
:100990007B68032B0BD8796801235B420022180087
:1009A00000F0FAF8064B7A681A60002300E0012391
:1009B0001800BD4603B090BD0000002008000020D4
:1009C0000400002080B500AF054B1B781A00054BD2
:1009D0001B68D218034B1A60C046BD4680BDC04696
:1009E00008000020EC00002080B500AF024B1B681F
:1009F0001800BD4680BDC046EC00002080B584B024
:100A000000AF7860FFF7F0FF0300BB607B68FB601E
:100A1000FB68013305D0094B1B781A00FB689B1853
:100A2000FB60C046FFF7E0FF0200BB68D31AFA681C
:100A30009A42F7D8C046BD4604B080BD08000020E9
:100A400080B582B000AF0200FB1D1A70FB1D1B7841
:100A50007F2B09D8FB1D1B781A001F231A40044B5B
:100A6000012191400A001A60C046BD4602B080BD17
:100A700000E100E090B583B000AF02003960FB1DDB
:100A80001A70FB1D1B787F2B28D82F4AFB1D1B7863
:100A90005BB29B08C0339B009B58FA1D1278110073
:100AA00003220A40D200FF2191400A00D2431A409B
:100AB00011003B689B01FF221A40FB1D1B781800A8
:100AC00003230340DB009A401F48FB1D1B785BB2E9
:100AD0009B080A43C0339B001A5031E01B4AFB1DA0
:100AE0001B7819000F230B40083B9B0806339B0023
:100AF000D31804331B68FA1D1278110003220A4030
:100B0000D200FF2191400A00D2431A4011003B68F5
:100B10009B01FF221A40FB1D1B7818000323034092
:100B2000DB009A400948FB1D1B781C000F23234063
:100B3000083B9B080A4306339B00C31804331A6022
:100B4000C046BD4603B090BD00E100E000ED00E00E
:100B500080B582B000AF78607B68013B0C4A93425D
:100B600001D9012310E00B4B7A68013A5A60012346
:100B70005B4203211800FFF77DFF064B00229A60BD
:100B8000044B07221A6000231800BD4602B080BD46
:100B9000FFFFFF0010E000E080B584B000AFB96057
:100BA0007A600F217B18021C1A70BA687B181B78B8
:100BB0005BB211001800FFF75DFFC046BD4604B0F0
:100BC00080BD80B582B000AF0200FB1D1A70FB1D16
:100BD0001B785BB21800FFF733FFC046BD4602B07A
:100BE00080BD80B582B000AF78607B681800FFF7E9
:100BF000AFFF03001800BD4602B080BD80B586B0CF
:100C000000AF7860396000237B614FE13B681B686F
:100C100001217A6991400A001340FB60FB68002BB8
:100C200000D140E13B685B68022B03D03B685B6806
:100C3000122B23D17B69DA087B6808329200D358E3
:100C40003B617B69072213409B000F229A401300EF
:100C5000DA433B6913403B613B681A697B690721B2
:100C60000B409B009A4013003A6913433B617B6938
:100C7000DA087B68083292003969D1507B681B68BA
:100C80003B617B695B0003229A401300DA433B69B6
:100C900013403B613B685B6803221A407B695B0041
:100CA0009A4013003A6913433B617B683A691A60C2
:100CB0003B685B68012B0BD03B685B68022B07D05D
:100CC0003B685B68112B03D03B685B68122B30D10B
:100CD0007B689B683B617B695B0003229A40130041
:100CE000DA433B6913403B613B68DA687B695B0030
:100CF0009A4013003A6913433B617B683A699A60F2
:100D00007B685B683B6101227B699A401300DA4390
:100D10003B6913403B613B685B681B0901221A4039
:100D20007B699A4013003A6913433B617B683A69D7
:100D30005A607B68DB683B617B695B0003229A40F9
:100D40001300DA433B6913403B613B689A687B6957
:100D50005B009A4013003A6913433B617B683A6930
:100D6000DA603B685A6880235B05134000D19AE043
:100D7000544B9A69534B01210A439A61514B9B6929
:100D800001221340BB60BB684F4A7B699B0802335A
:100D90009B009B583B617B69032213409B000F2201
:100DA0009A401300DA433B6913403B617A68902311
:100DB000DB059A4213D07B68444A93420DD07B688E
:100DC000434A934207D07B68424A934201D10323AE
:100DD00006E0052304E0022302E0012300E00023F3
:100DE0007A6903210A40920093403A6913433B61B8
:100DF00035497B699B0802339B003A695A50364B50
:100E00001B683B61FB68DA433B6913403B613B680D
:100E10005A6880235B02134003D03A69FB6813438E
:100E20003B612D4B3A691A602B4B5B683B61FB6859
:100E3000DA433B6913403B613B685A6880239B025D
:100E4000134003D03A69FB6813433B61224B3A6974
:100E50005A60214B9B683B61FB68DA433B69134056
:100E60003B613B685A6880235B03134003D03A69B7
:100E7000FB6813433B61184B3A699A60164BDB6879
:100E80003B61FB68DA433B6913403B613B685A684E
:100E900080239B03134003D03A69FB6813433B61F3
:100EA0000D4B3A69DA607B6901337B613B681A68F4
:100EB0007B69DA40131E00D0A8E6C046BD4606B0E6
:100EC00080BDC04600100240000001400004004800
:100ED00000080048000C00480004014080B584B0C0
:100EE00000AF78600A00BB1C1A807B681B69BA1CC3
:100EF0001288134004D00F23FB1801221A7003E05C
:100F00000F23FB1800221A700F23FB181B78180000
:100F1000BD4604B080BD80B582B000AF78600800E7
:100F20001100BB1C021C1A807B1C0A1C1A707B1C43
:100F30001B78002B04D0BB1C1A887B689A6103E0E5
:100F4000BB1C1A887B689A62C046BD4602B080BD51
:100F500080B582B000AF78600A00BB1C1A807B6845
:100F60005B69BA1C1288134005D0BB1C1B881A048D
:100F70007B689A6103E0BB1C1A887B689A61C04653
:100F8000BD4602B080BD000080B582B000AF020057
:100F9000BB1D1A80094B5B69BA1D1288134008D02B
:100FA000064BBA1D12885A61BB1D1B881800FFF73B
:100FB0005FFAC046BD4602B080BDC0460004014095
:100FC00080B588B000AF78607B68002B01D1012329
:100FD00003E37B681B680122134000D18DE0C44B02
:100FE0005B680C221340042B0ED0C14B5B680C22B3
:100FF0001340082B16D1BE4B5A6880235B021A405F
:1010000080235B029A420DD1B94B1A6880239B0260
:10101000134000D170E07B685B68002B00D06BE070
:101020000123DAE27B685B68012B07D1B04B1A68B9
:10103000AF4B802149020A431A602FE07B685B684E
:10104000002B0CD1AA4B1A68A94BAA490A401A6076
:10105000A74B1A68A64BA8490A401A601EE07B6895
:101060005B68052B0ED1A24B1A68A14B8021C902E7
:101070000A431A609E4B1A689D4B802149020A431D
:101080001A600BE09A4B1A68994B9A490A401A6009
:10109000974B1A68964B98490A401A607B685B68C0
:1010A000002B14D0FFF7A0FC0300BB6108E0FFF7A2
:1010B0009BFC0200BB69D31A642B01D903238CE289
:1010C0008B4B1A6880239B021340F0D015E0FFF78A
:1010D0008BFC0300BB6108E0FFF786FC0200BB69E4
:1010E000D31A642B01D9032377E2814B1A6880233A
:1010F0009B021340F0D100E0C0467B681B680222CF
:10110000134000D169E07A4B5B680C2213400BD08E
:10111000774B5B680C221340082B1CD1744B5A6828
:1011200080235B02134016D1714B1B6802221340CF
:1011300005D07B68DB68012B01D001234DE26C4BAD
:101140001B68F822934319007B681B69DA00684B1F
:101150000A431A6041E07B68DB68002B24D0644BB3
:101160001A68634B01210A431A60FFF73DFC030034
:10117000BB6108E0FFF738FC0200BB69D31A022B01
:1011800001D9032329E25A4B1B6802221340F1D0F4
:10119000574B1B68F822934319007B681B69DA00E0
:1011A000534B0A431A6018E0514B1A68504B012107
:1011B0008A431A60FFF718FC0300BB6108E0FFF7E1
:1011C00013FC0200BB69D31A022B01D9032304E2EA
:1011D000474B1B6802221340F1D17B681B68082231
:1011E000134036D07B68DB69002B19D0404B5A6A1C
:1011F0003F4B01210A435A62FFF7F6FB0300BB6134
:1012000008E0FFF7F1FB0200BB69D31A022B01D9FA
:101210000323E2E1364B5B6A02221340F1D018E06F
:10122000334B5A6A324B01218A435A62FFF7DCFB87
:101230000300BB6108E0FFF7D7FB0200BB69D31ACC
:10124000022B01D90323C8E1294B5B6A0222134018
:10125000F1D17B681B680422134000D1B6E01F2344
:10126000FB1800221A70224BDA6980235B051340B9
:1012700011D11F4BDA691E4B802149050A43DA61FF
:101280001B4BDA6980235B051340FB60FB681F235F
:10129000FB1801221A70194B1A6880235B00134057
:1012A0001AD1164B1A68154B802149000A431A605F
:1012B000FFF79AFB0300BB6108E0FFF795FB020014
:1012C000BB69D31A642B01D9032386E10B4B1A683F
:1012D00080235B001340F0D07B689B68012B0FD10B
:1012E000034B1A6A024B01210A431A6236E0C046D8
:1012F00000100240FFFFFEFFFFFFFBFF00700040F9
:101300007B689B68002B0CD1B64B1A6AB54B012148
:101310008A431A62B34B1A6AB24B04218A431A6297
:101320001CE07B689B68052B0CD1AE4B1A6AAD4B59
:1013300004210A431A62AB4B1A6AAA4B01210A43E1
:101340001A620BE0A74B1A6AA64B01218A431A6264
:10135000A44B1A6AA34B04218A431A627B689B68D8
:10136000002B14D0FFF740FB0300BB6109E0FFF73F
:101370003BFB0200BB69D31A9B4A934201D903236A
:101380002BE1984B1B6A02221340F0D013E0FFF7C9
:101390002BFB0300BB6109E0FFF726FB0200BB69E2
:1013A000D31A914A934201D9032316E18D4B1B6A4C
:1013B00002221340F0D11F23FB181B78012B05D10B
:1013C000884BDA69874B89490A40DA617B681B6878
:1013D0001022134063D07B685B69012B2AD1814BBB
:1013E0005A6B804B04210A435A637E4B5A6B7D4BE8
:1013F00001210A435A63FFF7F7FA0300BB6108E0D3
:10140000FFF7F2FA0200BB69D31A022B01D90323BA
:10141000E3E0744B5B6B02221340F1D0714B5B6BCA
:10142000F822934319007B689B69DA006D4B0A43ED
:101430005A6334E07B685B69053311D1694B5A6BA1
:10144000684B04218A435A63664B5B6BF8229343D3
:1014500019007B689B69DA00624B0A435A631EE0FD
:10146000604B5A6B5F4B04210A435A635D4B5A6BC6
:101470005C4B01218A435A63FFF7B6FA0300BB6154
:1014800008E0FFF7B1FA0200BB69D31A022B01D9B9
:101490000323A2E0534B5B6B02221340F1D17B6824
:1014A0001B6A002B00D197E04E4B5B680C22134067
:1014B000082B00D16BE07B681B6A022B4CD1494B97
:1014C0001A68484B4A490A401A60FFF78DFA030030
:1014D000BB6108E0FFF788FA0200BB69D31A022B50
:1014E00001D9032379E03F4B1A6880239B04134002
:1014F000F0D13C4BDB6A0F22934319007B68DA6A18
:10150000384B0A43DA62374B5B683A4A134019009A
:101510007B689A6A7B685B6A1A43324B0A435A605B
:10152000304B1A682F4B802149040A431A60FFF799
:101530005BFA0300BB6108E0FFF756FA0200BB69E3
:10154000D31A022B01D9032347E0264B1A688023C4
:101550009B041340F0D03FE0224B1A68214B2449F2
:101560000A401A60FFF740FA0300BB6108E0FFF78A
:101570003BFA0200BB69D31A022B01D903232CE0EA
:10158000184B1A6880239B041340F0D124E07B6839
:101590001B6A012B01D101231FE0124B5B687B61A9
:1015A000104BDB6A3B617A6980235B021A407B68DF
:1015B0005B6A9A420ED13B690F221A407B68DB6A54
:1015C0009A4207D17A69F0239B031A407B689B6A91
:1015D0009A4201D0012300E000231800BD4608B064
:1015E00080BDC0460010024088130000FFFFFFEFDF
:1015F000FFFFFFFEFFFFC2FF80B584B000AF786041
:1016000039607B68002B01D10123B3E05B4B1B6881
:10161000012213403A689A4211D9584B1B680122A3
:1016200093431900554B3A680A431A60534B1B68A1
:10163000012213403A689A4201D001239AE07B6864
:101640001B680222134015D07B681B6804221340DC
:1016500006D04B4B5A684A4BE021C9000A435A60F6
:10166000474B5B68F022934319007B689A68444BB0
:101670000A435A607B681B680122134040D07B6894
:101680005B68012B07D13E4B1A6880239B021340F5
:1016900014D101236EE07B685B68022B07D1384BC5
:1016A0001A6880239B04134008D1012362E0344B65
:1016B0001B680222134001D101235BE0304B5B68C1
:1016C0000322934319007B685A682D4B0A435A60E2
:1016D000FFF78AF90300FB6009E0FFF785F90200D4
:1016E000FB68D31A274A934201D9032342E0244BD3
:1016F0005B680C221A407B685B689B009A42ECD1C5
:101700001E4B1B68012213403A689A4211D21B4BB0
:101710001B68012293431900184B3A680A431A6068
:10172000164B1B68012213403A689A4201D00123EC
:1017300020E07B681B680422134009D0104B5B68D3
:10174000114A134019007B68DA680D4B0A435A604E
:1017500000F020F801000A4B5B681B090F221340C0
:101760000A4AD35C0A00DA40094B1A600020FFF7EE
:10177000F5F800231800BD4604B080BD00200240EB
:101780000010024088130000FFF8FFFF802F0008C0
:101790000000002090B58FB000AF1423FB182B4A37
:1017A00013CA13C312681A603B1D294A13CA13C314
:1017B00012681A600023FB620023BB6200237B6374
:1017C00000237B6200233B63224B5B68FB62FB6A66
:1017D0000C221340042B02D0082B03D02DE01E4B0B
:1017E0003B632DE0FB6A9B0C0F2213401422BA18B6
:1017F000D35C7B62174BDB6A0F2213403A1DD35C2C
:10180000BB62FA6A80235B02134009D0B96A1248AE
:10181000FEF77AFC03001A007B6A53437B6309E0FE
:10182000796A0A005201521A93019B1ADB005B1875
:101830001B027B637B6B3B6302E0074B3B63C04651
:101840003B6B1800BD460FB090BDC046602F00082E
:10185000702F00080010024000127A0080B500AF1F
:10186000024B1B681800BD4680BDC046000000202A
:1018700080B500AFFFF7F2FF0100064B5B681B0A63
:1018800007221340044AD35CD9400B001800BD4620
:1018900080BDC04600100240902F000880B586B081
:1018A00000AF786000233B610023FB607B681A680F
:1018B00080235B02134000D18FE01723FB18002226
:1018C0001A70574BDA6980235B05134011D1544BD2
:1018D000DA69534B802149050A43DA61504BDA69D2
:1018E00080235B051340BB60BB681723FB180122F4
:1018F0001A704C4B1A6880235B0013401AD1494B75
:101900001A68484B802149000A431A60FFF76CF8B7
:1019100003003B6108E0FFF767F802003B69D31A58
:10192000642B01D9032377E03E4B1A6880235B00C8
:101930001340F0D03A4B1A6AC0239B001340FB605F
:10194000FB68002B34D07B685A68C0239B0013408F
:10195000FA689A422CD0324B1B6A334A1340FB6020
:101960002F4B1A6A2E4B802149020A431A622C4BD4
:101970001A6A2B4B2D490A401A62294BFA681A62DF
:10198000FB680122134013D0FFF72EF803003B61E0
:1019900009E0FFF729F802003B69D31A244A934271
:1019A00001D9032338E01E4B1B6A02221340F0D0FA
:1019B0001B4B1B6A1C4A134019007B685A68184B62
:1019C0000A431A621723FB181B78012B05D1144B0D
:1019D000DA69134B17490A40DA617B681B680122F8
:1019E000134009D00E4B1B6B0322934319007B68F5
:1019F0009A680B4B0A431A637B681B6820221340CA
:101A000009D0074B1B6B1022934319007B68DA68DF
:101A1000034B0A431A6300231800BD4606B080BD7D
:101A20000010024000700040FFFCFFFFFFFFFEFFC0
:101A300088130000FFFFFFEF80B582B000AF786031
:101A40007B68002B01D101231EE07B683D229B5C5B
:101A5000DBB2002B07D17B683C22002199547B68C4
:101A60001800FEF771FE7B683D22022199547B68C5
:101A70001A687B6804331900100000F0A1FA7B6833
:101A80003D220121995400231800BD4602B080BDBB
:101A900080B584B000AF78607B681B68DA687B68CB
:101AA0001B6801210A43DA607B681B689B68072278
:101AB0001340FB60FB68062B07D07B681B681A6825
:101AC0007B681B6801210A431A6000231800BD4689
:101AD00004B080BD80B582B000AF78607B68002B19
:101AE00001D101231EE07B683D229B5CDBB2002B11
:101AF00007D17B683C22002199547B68180000F0D4
:101B000015F87B683D22022199547B681A687B682E
:101B100004331900100000F053FA7B683D220121C4
:101B2000995400231800BD4602B080BD80B582B034
:101B300000AF7860C046BD4602B080BD80B582B0BF
:101B400000AF78607B681B681B6902221340022B80
:101B500024D17B681B68DB6802221340022B1DD155
:101B60007B681B68032252421A617B6801221A7744
:101B70007B681B689B690322134004D07B681800B4
:101B800000F006FA07E07B68180000F0F9F97B68BE
:101B9000180000F005FA7B6800221A777B681B6842
:101BA0001B6904221340042B25D17B681B68DB686A
:101BB00004221340042B1ED17B681B68052252426D
:101BC0001A617B6802221A777B681B689A69C023B6
:101BD0009B00134004D07B68180000F0D9F907E09F
:101BE0007B68180000F0CCF97B68180000F0D8F989
:101BF0007B6800221A777B681B681B6908221340E8
:101C0000082B24D17B681B68DB6808221340082B53
:101C10001DD17B681B68092252421A617B6804222D
:101C20001A777B681B68DB690322134004D07B684A
:101C3000180000F0ADF907E07B68180000F0A0F98B
:101C40007B68180000F0ACF97B6800221A777B688B
:101C50001B681B6910221340102B25D17B681B6861
:101C6000DB6810221340102B1ED17B681B681122E9
:101C700052421A617B6808221A777B681B68DA690E
:101C8000C0239B00134004D07B68180000F080F94B
:101C900007E07B68180000F073F97B68180000F01B
:101CA0007FF97B6800221A777B681B681B69012219
:101CB0001340012B0FD17B681B68DB6801221340A6
:101CC000012B08D17B681B68022252421A617B6893
:101CD0001800FEF7FBFB7B681B681B698022134022
:101CE000802B0FD17B681B68DB6880221340802B20
:101CF00008D17B681B68812252421A617B681800F8
:101D000000F0FCFC7B681B681B6940221340402BE1
:101D10000FD17B681B68DB6840221340402B08D141
:101D20007B681B68412252421A617B68180000F0F0
:101D30003FF97B681B681B6920221340202B0FD1C1
:101D40007B681B68DB6820221340202B08D17B684E
:101D50001B68212252421A617B68180000F0C6FC01
:101D6000C046BD4602B080BD80B584B000AFF8600B
:101D7000B9607A60FB683C229B5C012B01D1022395
:101D80003CE0FB683C2201219954FB683D22022182
:101D900099547B68042B10D002D8002B05D024E086
:101DA000082B12D00C2B18D01FE0FB681B68BA68F8
:101DB0001100180000F070F917E0FB681B68BA68A2
:101DC0001100180000F0E6F90FE0FB681B68BA6824
:101DD0001100180000F05CFA07E0FB681B68BA68A5
:101DE0001100180000F0D4FAC046FB683D22012122
:101DF0009954FB683C220021995400231800BD46E9
:101E000004B080BD80B584B000AF786039607B6875
:101E10003C229B5C012B01D10223ABE07B683C227E
:101E2000012199547B683D22022199547B681B68EB
:101E30009B68FB60FB6877229343FB60FB684F4A1B
:101E40001340FB607B681B68FA689A603B681B68FC
:101E5000402B00D16BE00ED8102B00D177E003D8D7
:101E6000002B00D173E07CE0202B00D16FE0302B01
:101E700000D16CE075E0702B0ED004D8502B36D01A
:101E8000602B44D06DE080225201934268D08022C2
:101E90009201934217D064E07B6818683B689968A8
:101EA0003B685A683B68DB6800F050FB7B681B6846
:101EB0009B68FB60FB6877221343FB607B681B68B1
:101EC000FA689A604DE07B6818683B6899683B68DF
:101ED0005A683B68DB6800F039FB7B681B689A68CE
:101EE0007B681B688021C9010A439A6039E07B68DE
:101EF00018683B6859683B68DB681A0000F0ACFA68
:101F00007B681B685021180000F006FB29E07B6805
:101F100018683B6859683B68DB681A0000F0CAFA29
:101F20007B681B686021180000F0F6FA19E07B68F6
:101F300018683B6859683B68DB681A0000F08CFA47
:101F40007B681B684021180000F0E6FA09E07B6816
:101F50001A683B681B681900100000F0DDFA00E009
:101F6000C0467B683D22012199547B683C220021B8
:101F7000995400231800BD4604B080BDFF00FFFF48
:101F800080B582B000AF7860C046BD4602B080BD6B
:101F900080B582B000AF7860C046BD4602B080BD5B
:101FA00080B582B000AF7860C046BD4602B080BD4B
:101FB00080B582B000AF7860C046BD4602B080BD3B
:101FC00080B584B000AF786039607B681B68FB60C7
:101FD0007B682B4A934203D07B682A4A934208D1FC
:101FE000FB6870229343FB603B685B68FA681343AD
:101FF000FB607B68224A93420FD07B68214A934260
:102000000BD07B68204A934207D07B681F4A9342DB
:1020100003D07B681E4A934208D1FB681D4A1340D7
:10202000FB603B68DB68FA681343FB60FB68802257
:1020300093431A003B685B691343FB607B68FA6853
:102040001A603B689A687B68DA623B681A687B684A
:102050009A627B680A4A934207D07B680B4A934294
:1020600003D07B680A4A934203D13B681A697B68B4
:102070001A637B6801225A61C046BD4604B080BD28
:10208000002C0140000400400020004000440140BA
:1020900000480140FFFCFFFF80B586B000AF7860CC
:1020A00039607B681B6A012293431A007B681A62BD
:1020B0007B681B6A7B617B685B683B617B689B69B3
:1020C000FB60FB6870229343FB60FB680322934331
:1020D000FB603B681B68FA681343FB607B69022264
:1020E00093437B613B689B687A6913437B617B68A0
:1020F000234A934207D07B68224A934203D07B68ED
:10210000214A93420CD17B69082293437B613B684F
:10211000DB687A6913437B617B69042293437B61AB
:102120007B68174A934207D07B68164A934203D0D4
:102130007B68154A934211D13B69144A13403B61B5
:102140003B69134A13403B613B685B693A6913433F
:102150003B613B689B693A6913433B617B683A6921
:102160005A607B68FA689A613B685A687B685A6370
:102170007B687A691A62C046BD4606B080BDC0461B
:10218000002C01400044014000480140FFFEFFFFD9
:10219000FFFDFFFF80B586B000AF786039607B68D7
:1021A0001B6A102293431A007B681A627B681B6AC1
:1021B0007B617B685B683B617B689B69FB60FB685C
:1021C0002C4A1340FB60FB682B4A1340FB603B68C2
:1021D0001B681B02FA681343FB607B692022934350
:1021E0007B613B689B681B017A6913437B617B6859
:1021F000224A93420DD17B69802293437B613B68E5
:10220000DB681B017A6913437B617B69402293433E
:102210007B617B68194A934207D07B68184A9342D6
:1022200003D07B68174A934213D13B69164A134087
:102230003B613B69154A13403B613B685B699B000E
:102240003A6913433B613B689B699B003A691343BE
:102250003B617B683A695A607B68FA689A613B68BF
:102260005A687B689A637B687A691A62C046BD4681
:1022700006B080BDFF8FFFFFFFFCFFFF002C014079
:102280000044014000480140FFFBFFFFFFF7FFFF54
:1022900080B586B000AF786039607B681B6A334ACE
:1022A0001A407B681A627B681B6A7B617B685B688B
:1022B0003B617B68DB69FB60FB6870229343FB60DA
:1022C000FB6803229343FB603B681B68FA68134377
:1022D000FB607B69264A13407B613B689B681B025D
:1022E0007A6913437B617B68224A93420DD17B69F3
:1022F000214A13407B613B68DB681B027A69134308
:102300007B617B691D4A13407B617B68194A93425C
:1023100007D07B681A4A934203D07B68194A9342DC
:1023200013D13B69184A13403B613B69174A13407C
:102330003B613B685B691B013A6913433B613B6846
:102340009B691B013A6913433B617B683A695A6098
:102350007B68FA68DA613B685A687B68DA637B6895
:102360007A691A62C046BD4606B080BDFFFEFFFF17
:10237000FFFDFFFF002C0140FFF7FFFFFFFBFFFF0A
:102380000044014000480140FFEFFFFFFFDFFFFF77
:1023900080B586B000AF786039607B681B6A264ADA
:1023A0001A407B681A627B681B6A3B617B685B68CA
:1023B0007B617B68DB69FB60FB68204A1340FB6044
:1023C000FB681F4A1340FB603B681B681B02FA68EE
:1023D0001343FB603B691B4A13403B613B689B68AE
:1023E0001B033A6913433B617B68174A934207D04A
:1023F0007B68164A934203D07B68154A934209D101
:102400007B69144A13407B613B685B699B017A6975
:1024100013437B617B687A695A607B68FA68DA618A
:102420003B685A687B681A647B683A691A62C046DE
:10243000BD4606B080BDC046FFEFFFFFFF8FFFFF28
:10244000FFFCFFFFFFDFFFFF002C014000440140C5
:1024500000480140FFBFFFFF80B586B000AFF860C5
:10246000B9607A60FB681B6A7B61FB681B6A0122AA
:1024700093431A00FB681A62FB689B693B613B69E6
:10248000F02293433B617B681B013A6913433B6134
:102490007B690A2293437B617A69BB6813437B6142
:1024A000FB683A699A61FB687A691A62C046BD4660
:1024B00006B080BD80B586B000AFF860B9607A60C4
:1024C000FB681B6A102293431A00FB681A62FB68C0
:1024D0009B697B61FB681B6A3B617B690D4A13400A
:1024E0007B617B681B037A6913437B613B69A02294
:1024F00093433B61BB681B013A6913433B61FB6833
:102500007A699A61FB683A691A62C046BD4606B0AC
:1025100080BDC046FF0FFFFF80B584B000AF78607C
:1025200039607B689B68FB60FB6870229343FB60AB
:102530003A68FB68134307221343FB607B68FA6821
:102540009A60C046BD4604B080BD000080B586B02C
:1025500000AFF860B9607A603B60FB689B687B61A4
:102560007B69094A13407B613B681A027B681A4306
:10257000BB6813437A6913437B61FB687A699A608D
:10258000C046BD4606B080BDFF00FFFF80B584B0E9
:1025900000AF786039607B683C229B5C012B01D1E5
:1025A00002233CE07B683C22012199547B683D2258
:1025B000022199547B681B685B68FB607B681B6821
:1025C0009B68BB60FB6870229343FB603B681B68A1
:1025D000FA681343FB607B681B68FA685A607B6883
:1025E0001B68114A934204D07B681B680F4A9342D0
:1025F0000CD1BB6880229343BB603B685B68BA68C0
:102600001343BB607B681B68BA689A607B683D2295
:10261000012199547B683C22002199540023180021
:10262000BD4604B080BDC046002C014000040040FF
:1026300080B584B000AF786039600023FB607B68B0
:102640003C229B5C012B01D102233EE07B683C22B3
:1026500001219954FB68FF2293431A003B68DB6811
:102660001343FB60FB681B4A1A403B689B6813439B
:10267000FB60FB68184A1A403B685B681343FB60C9
:10268000FB68164A1A403B681B681343FB60FB68F3
:10269000134A1A403B681B691343FB60FB68114AED
:1026A0001A403B685B691343FB60FB680E4A1A40A3
:1026B0003B68DB691343FB607B681B68FA685A64FC
:1026C0007B683C220021995400231800BD4604B0C9
:1026D00080BDC046FFFCFFFFFFFBFFFFFFF7FFFFD2
:1026E000FFEFFFFFFFDFFFFFFFBFFFFF80B582B0FF
:1026F00000AF7860C046BD4602B080BD80B582B0F4
:1027000000AF7860C046BD4602B080BD80B582B0E3
:1027100000AF78607B68002B01D1012344E07B6827
:102720005B6F002B07D17B687022002199547B6876
:102730001800FEF76FF87B6824225A677B681B68D5
:102740001A687B681B6801218A431A607B6818003D
:1027500000F0D8F80300012B01D1012324E07B68AD
:102760005B6A002B03D07B68180000F039FA7B68A5
:102770001B685A687B681B680D490A405A607B6871
:102780001B689A687B681B6808218A439A607B688B
:102790001B681A687B681B6801210A431A607B6802
:1027A000180000F0D1FA03001800BD4602B080BD49
:1027B000FFF7FFFF80B58AB002AFF860B9603B60F9
:1027C000BB1D1A80FB685B6F202B00D095E0BB68B7
:1027D000002B03D0BB1D1B88002B01D101238DE0F2
:1027E000FB689A6880235B019A4209D1FB681B69E8
:1027F000002B05D1BB680122134001D001237DE0ED
:10280000FB6870229B5C012B01D1022376E0FB6800
:10281000702201219954FB680022DA67FB682122AB
:102820005A67FEF7E1F803007B61FB68BA1D50218F
:1028300012885A52FB68BA1D522112885A52FB68FC
:102840009A6880235B019A4208D1FB681B69002BC0
:1028500004D10023FB61BB68BB6103E0BB68FB6183
:102860000023BB612DE07A69F8683B680093130090
:102870000022802100F0AEFA031E01D003233DE0C8
:10288000FB69002B0BD1BB691A88FB681B68D2055A
:10289000D20D92B21A85BB690233BB6108E0FB69B5
:1028A0001A78FB681B6892B21A85FB690133FB61D9
:1028B000FB6852229B5A9BB2013B99B2FB685222A1
:1028C0009952FB6852229B5A9BB2002BCBD17A695A
:1028D000F8683B68009313000022402100F07AFA68
:1028E000031E01D0032309E0FB6820225A67FB681E
:1028F000702200219954002300E002231800BD46F5
:1029000008B080BD80B588B000AF78600023BB619F
:102910001723FB1800221A707B689A687B681B6972
:102920001A437B685B691A437B68DB6913433B612D
:102930007B681B681B68A34A134019007B681B68EF
:102940003A690A431A607B681B685B689E4A1340B9
:1029500019007B68DA687B681B680A435A607B68E9
:102960009B693B617B681B6A3A6913433B617B68E7
:102970001B689B68954A134019007B681B683A697D
:102980000A439A60924B1B6B03221340012B0FD01A
:1029900004D3022B11D0032B05D013E01F23FB1807
:1029A00000221A7012E01F23FB1802221A700DE099
:1029B0001F23FB1804221A7008E01F23FB180822AB
:1029C0001A7003E01F23FB1810221A70C0467B68A0
:1029D000DA6980231B029A4200D07DE01F23FB1896
:1029E0001B78022B1CD002DC002B05D04BE0042B03
:1029F00025D0082B37D046E0FEF73AFF0300FB60F6
:102A0000FB685A007B685B685B08D2187B685B6870
:102A100019001000FDF778FB03009BB2BB6137E0A3
:102A20007B685B685B086B4A9A187B685B68190077
:102A30001000FDF769FB03009BB2BB6128E0FEF7C5
:102A4000A9FE0300FB60FB685A007B685B685B08BB
:102A5000D2187B685B6819001000FDF755FB030076
:102A60009BB2BB6114E07B685B685B08802252020A
:102A70009A187B685B6819001000FDF745FB03009E
:102A80009BB2BB6104E01723FB1801221A70C046F9
:102A9000BB690F2B1BD9BB694F4A934217D8BB693F
:102AA0009AB20A203B180F218A431A80BB695B083F
:102AB0009BB20722134099B23B183A1812880A4376
:102AC0001A807B681B683A181288DA606CE017235A
:102AD000FB1801221A7067E01F23FB181B78022BDA
:102AE0001BD002DC002B05D049E0042B24D0082B9E
:102AF00035D044E0FEF7BCFE0300FB607B685B68FA
:102B00005A08FB68D2187B685B6819001000FDF753
:102B1000FBFA03009BB2BB6136E07B685B685B0835
:102B20002E4A9A187B685B6819001000FDF7ECFAD2
:102B300003009BB2BB6127E0FEF72CFE0300FB60A5
:102B40007B685B685A08FB68D2187B685B68190071
:102B50001000FDF7D9FA03009BB2BB6114E07B685B
:102B60005B685B08802212029A187B685B68190018
:102B70001000FDF7C9FA03009BB2BB6104E0172304
:102B8000FB1801221A70C046BB690F2B08D9BB691C
:102B9000114A934204D87B681B68BA69DA6003E083
:102BA0001723FB1801221A707B6800221A667B68C3
:102BB00000225A661723FB181B781800BD4608B080
:102BC00080BDC046F369FFFFFFCFFFFFFFF4FFFFAB
:102BD000001002400024F400FFFF000000127A0001
:102BE00080B582B000AF78607B685B6A01221340D9
:102BF0000BD07B681B685B684A4A134019007B68EE
:102C00009A6A7B681B680A435A607B685B6A022287
:102C100013400BD07B681B685B68434A1340190064
:102C20007B68DA6A7B681B680A435A607B685B6A68
:102C3000042213400BD07B681B685B683B4A13403F
:102C400019007B681A6B7B681B680A435A607B68B3
:102C50005B6A082213400BD07B681B685B68344AB0
:102C6000134019007B685A6B7B681B680A435A60E3
:102C70007B685B6A102213400BD07B681B689B68E3
:102C80002C4A134019007B689A6B7B681B680A43C7
:102C90009A607B685B6A202213400BD07B681B68BC
:102CA0009B68254A134019007B68DA6B7B681B68B8
:102CB0000A439A607B685B6A402213401DD07B68A0
:102CC0001B685B681D4A134019007B681A6C7B689F
:102CD0001B680A435A607B681A6C80235B039A4224
:102CE0000BD17B681B685B68154A134019007B6831
:102CF0005A6C7B681B680A435A607B685B6A802257
:102D000013400BD07B681B685B680E4A13401900A8
:102D10007B689A6C7B681B680A435A60C046BD4654
:102D200002B080BDFFFFFDFFFFFFFEFFFFFFFBFFC7
:102D3000FF7FFFFFFFEFFFFFFFDFFFFFFFFFEFFF63
:102D4000FFFF9FFFFFFFF7FF80B586B002AF7860FF
:102D50007B680022DA67FDF747FE0300FB607B68B3
:102D60001B681B6808221340082B0DD1FA688023CA
:102D700099037868164B00931300002200F02AF89C
:102D8000031E01D003231FE07B681B681B6804221D
:102D90001340042B0DD1FA688023D90378680C4BBB
:102DA00000931300002200F015F8031E01D0032346
:102DB0000AE07B6820225A677B6820229A677B683A
:102DC00070220021995400231800BD4604B080BD34
:102DD000FFFFFF0180B584B000AFF860B9603B60D1
:102DE000FB1D1A705DE0BB6901335AD0FDF7FCFD95
:102DF00002003B68D31ABA699A4202D3BB69002B1E
:102E00001BD1FB681B681A68FB681B682F490A40C6
:102E10001A60FB681B689A68FB681B6801218A437B
:102E20009A60FB6820225A67FB6820229A67FB6839
:102E3000702200219954032343E0FB681B681B6840
:102E4000042213402DD0FB681B68DA6980231B0124
:102E50001A4080231B019A4223D1FB681B68802201
:102E600012011A62FB681B681A68FB681B68174925
:102E70000A401A60FB681B689A68FB681B6801219E
:102E80008A439A60FB6820225A67FB6820229A676F
:102E9000FB682022DA67FB68702200219954032323
:102EA0000FE0FB681B68DB69BA681340BA68D31A85
:102EB0005A425341DBB21A00FB1D1B789A4292D052
:102EC00000231800BD4604B080BDC0465FFEFFFF72
:102ED00070B500260C4D0D4C641BA410A64209D100
:102EE000002600F021F80A4D0A4C641BA410A642EB
:102EF00005D170BDB300EB5898470136EEE7B3003B
:102F0000EB5898470136F2E7982F0008982F0008F1
:102F1000982F00089C2F000803001218934200D13C
:102F2000704719700133F9E7F8B5C046F8BC08BC22
:102F30009E467047F8B5C046F8BC08BC9E46704730
:102F40004C6564206973204F6E200D0A200000003C
:102F50004C6564206973204F6666200D0A200000CE
:102F600002030405060708090A0B0C0D0E0F1010CA
:102F70000102030405060708090A0B0C0D0E0F10C9
:102F80000000000000000000010203040607080919
:082F900000000000010203042F
:042F9800E900000844
:042F9C00C100000868
:0C2FA00000127A00040000000100000094
:04000005080008E106
:00000001FF
