:020000040800F2
:100000000010002035060008C9040008D3040008C9
:1000100000000000000000000000000000000000E0
:10002000000000000000000000000000D9040008EB
:100030000000000000000000E3040008ED040008D8
:1000400085060008000000008506000885060008F7
:10005000850600088506000885060008FB040008E0
:1000600000000000850600088506000885060008D7
:1000700085060008850600088506000800000000C7
:10008000850600080000000000000000850600084A
:1000900000000000850600088506000885060008A7
:1000A000000000008506000800000000850600082A
:1000B0000000000000000000000000000000000040
:1000C00010B5064C2378002B07D1054B002B02D02E
:1000D000044800E000BF0123237010BD0C00002085
:1000E00000000000201C0008044B10B5002B03D0BA
:1000F0000349044800E000BF10BDC04600000000F6
:1001000010000020201C0008002243088B4274D3FA
:1001100003098B425FD3030A8B4244D3030B8B4208
:1001200028D3030C8B420DD3FF22090212BA030C11
:100130008B4202D31212090265D0030B8B4219D3F2
:1001400000E0090AC30B8B4201D3CB03C01A524112
:10015000830B8B4201D38B03C01A5241430B8B425A
:1001600001D34B03C01A5241030B8B4201D30B0343
:10017000C01A5241C30A8B4201D3CB02C01A52416A
:10018000830A8B4201D38B02C01A5241430A8B422D
:1001900001D34B02C01A5241030A8B4201D30B0216
:1001A000C01A5241CDD2C3098B4201D3CB01C01A30
:1001B000524183098B4201D38B01C01A524143093A
:1001C0008B4201D34B01C01A524103098B4201D328
:1001D0000B01C01A5241C3088B4201D3CB00C01A95
:1001E000524183088B4201D38B00C01A524143080D
:1001F0008B4201D34B00C01A5241411A00D2014632
:10020000524110467047FFE701B5002000F006F8A4
:1002100002BDC0460029F7D076E770477047C04658
:1002200090B589B000AF0C243B19180014231A00B4
:10023000002101F0EDFC4C4B5A694B4B8021C90366
:100240000A435A61484B5A698023DB031340BB6061
:10025000BB68454B5A69444B802189020A435A6165
:10026000414B5A6980239B0213407B607B683E4B65
:100270005A693D4B8021C9020A435A613A4B5A6977
:100280008023DB0213403B603B689023DB050022A8
:100290004021180000F0E9FC344B00220221180034
:1002A00000F0E3FC3B1903221A603B1903225A6059
:1002B0003B1900229A603B192D4A1900100000F0EA
:1002C00047FB3B192B4A1A603B1903225A603B1922
:1002D00000229A603A199023DB051100180000F003
:1002E00037FB3B1920221A603B19234A5A603B19FD
:1002F00001229A603A199023DB051100180000F0E2
:1003000027FB3B1940221A603B1901225A603B1916
:1003100000229A603B190022DA603A199023DB052B
:100320001100180000F014FB21007B1802221A6053
:100330007B1801225A607B1800229A607B180022E9
:10034000DA607B18094A1900100000F001FB002256
:100350000021072000F0CAFA072000F0DCFAC046AE
:10036000BD4609B090BDC0460010024000040048E0
:10037000001400489F6600000000211080B500AF07
:1003800000F082F900F010F8FFF74AFF00F0C2F821
:10039000044B0221180000F085FC322000F0D8F94F
:1003A000F6E7C0460004004890B591B000AF1024B5
:1003B0003B19180030231A00002101F029FC3B00F2
:1003C000180010231A00002101F022FC21007B18E4
:1003D00002221A607B180122DA607B1810221A614F
:1003E0007B1802221A627B1800225A627B18A02214
:1003F00092039A627B180022DA627B18180000F0E0
:1004000089FC031E01D000F035F83B0007221A607A
:100410003B0002225A603B0000229A603B0000220F
:10042000DA603B000121180000F090FF031E01D0AC
:1004300000F020F8C046BD4611B090BD80B582B036
:1004400000AF0200BB1D1A80BB1D1B88202B0DD1E5
:100450009023DB052021180000F0EAFB031E05D1E4
:100460009023DB054021180000F01CFCC046BD466F
:1004700002B080BD80B500AFC046BD4680BD000063
:1004800080B582B000AF0F4B9A690E4B01210A4331
:100490009A610C4B9B69012213407B607B68094B7E
:1004A000DA69084B802149050A43DA61054BDA69AC
:1004B00080235B0513403B603B68C046BD4602B0ED
:1004C00080BDC0460010024080B500AFC046BD46AA
:1004D00080BD80B500AFFEE780B500AFC046BD4629
:1004E00080BD80B500AFC046BD4680BD80B500AFC1
:1004F00000F012F9C046BD4680BD80B500AF202097
:1005000000F0ECFBC046BD4680BD80B500AFC046E4
:10051000BD4680BD80B58CB000AF2023FB1818000D
:1005200010231A00002101F073FB0C23FB181800A4
:1005300014231A00002101F06BFB3B1D1800082357
:100540001A00002101F064FB284B294A1A60274B4E
:1005500000225A60254B00229A60244B0022DA6068
:10056000224B00221A61214B00225A611F4B0022AC
:100570009A611E4B180001F01BF8031E01D0FFF713
:1005800079FF20217B18802252011A607A18174BBC
:100590001100180001F038F8031E01D0FFF76AFFC0
:1005A0000C217B1800221A607B1800225A607A18EE
:1005B0000E4B1100180001F0E5F8031E01D0FFF703
:1005C00059FF3B1D00221A603B1D00225A603A1D54
:1005D000064B1100180001F0A5FA031E01D0FFF729
:1005E00049FFC046BD460CB080BDC0462800002073
:1005F000002C014080B584B000AF78607B681B6838
:100600000A4A93420DD10A4B9A69094B802109018C
:100610000A439A61064B9A6980231B011340FB60D1
:10062000FB68C046BD4604B080BDC046002C0140FA
:10063000001002400D4885460D480E490E4A002321
:1006400002E0D458C4500433C4188C42F9D30B4A86
:100650000B4C002301E013600432A242FBD3FFF7EE
:1006600054FF01F0B1FAFFF789FEFEE70010002009
:10067000000000200C000020701C00080C0000206E
:100680006C000020FEE7000080B500AF074B1A6841
:10069000064B10210A431A60002000F009F8FFF70A
:1006A000EFFE00231800BD4680BDC046002002407A
:1006B00090B583B000AF7860144B1C68144B1B7866
:1006C0001900FA239800FFF71FFD0300190020000E
:1006D000FFF71AFD0300180000F02DF9031E01D0EA
:1006E00001230FE07B68032B0BD8796801235B4261
:1006F0000022180000F0FAF8064B7A681A6000230E
:1007000000E001231800BD4603B090BD00000020AA
:10071000080000200400002080B500AF054B1B78C6
:100720001A00054B1B68D218034B1A60C046BD4621
:1007300080BDC046080000206800002080B500AFE2
:10074000024B1B681800BD4680BDC04668000020F3
:1007500080B584B000AF7860FFF7F0FF0300BB60A6
:100760007B68FB60FB68013305D0094B1B781A00DE
:10077000FB689B18FB60C046FFF7E0FF0200BB6808
:10078000D31AFA689A42F7D8C046BD4604B080BD75
:100790000800002080B582B000AF0200FB1D1A7077
:1007A000FB1D1B787F2B09D8FB1D1B781A001F230C
:1007B0001A40044B012191400A001A60C046BD4610
:1007C00002B080BD00E100E090B583B000AF020050
:1007D0003960FB1D1A70FB1D1B787F2B28D82F4A10
:1007E000FB1D1B785BB29B08C0339B009B58FA1D16
:1007F0001278110003220A40D200FF2191400A0022
:10080000D2431A4011003B689B01FF221A40FB1D96
:100810001B78180003230340DB009A401F48FB1D90
:100820001B785BB29B080A43C0339B001A5031E02F
:100830001B4AFB1D1B7819000F230B40083B9B082C
:1008400006339B00D31804331B68FA1D127811007D
:1008500003220A40D200FF2191400A00D2431A40ED
:1008600011003B689B01FF221A40FB1D1B781800FA
:1008700003230340DB009A400948FB1D1B781C0042
:100880000F232340083B9B080A4306339B00C318F1
:1008900004331A60C046BD4603B090BD00E100E0DD
:1008A00000ED00E080B582B000AF78607B68013B6E
:1008B0000C4A934201D9012310E00B4B7A68013AAC
:1008C0005A6001235B4203211800FFF77DFF064BAE
:1008D00000229A60044B07221A6000231800BD46CC
:1008E00002B080BDFFFFFF0010E000E080B584B0E3
:1008F00000AFB9607A600F217B18021C1A70BA68C9
:100900007B181B785BB211001800FFF75DFFC04633
:10091000BD4604B080BD80B582B000AF0200FB1DB3
:100920001A70FB1D1B785BB21800FFF733FFC0463F
:10093000BD4602B080BD80B582B000AF78607B68F4
:100940001800FFF7AFFF03001800BD4602B080BDDE
:1009500080B586B000AF7860396000237B614FE1DD
:100960003B681B6801217A6991400A001340FB60D3
:10097000FB68002B00D140E13B685B68022B03D091
:100980003B685B68122B23D17B69DA087B680832ED
:100990009200D3583B617B69072213409B000F22D2
:1009A0009A401300DA433B6913403B613B681A6984
:1009B0007B6907210B409B009A4013003A6913435F
:1009C0003B617B69DA087B68083292003969D15053
:1009D0007B681B683B617B695B0003229A401300C4
:1009E000DA433B6913403B613B685B6803221A4072
:1009F0007B695B009A4013003A6913433B617B6853
:100A00003A691A603B685B68012B0BD03B685B68F6
:100A1000022B07D03B685B68112B03D03B685B68F7
:100A2000122B30D17B689B683B617B695B000322A2
:100A30009A401300DA433B6913403B613B68DA6834
:100A40007B695B009A4013003A6913433B617B6802
:100A50003A699A607B685B683B6101227B699A40D6
:100A60001300DA433B6913403B613B685B681B0939
:100A700001221A407B699A4013003A6913433B6193
:100A80007B683A695A607B68DB683B617B695B0025
:100A900003229A401300DA433B6913403B613B68F1
:100AA0009A687B695B009A4013003A6913433B6183
:100AB0007B683A69DA603B685A6880235B051340BB
:100AC00000D19AE0544B9A69534B01210A439A6131
:100AD000514B9B6901221340BB60BB684F4A7B6945
:100AE0009B0802339B009B583B617B6903221340A8
:100AF0009B000F229A401300DA433B6913403B618D
:100B00007A689023DB059A4213D07B68444A93426B
:100B10000DD07B68434A934207D07B68424A934298
:100B200001D1032306E0052304E0022302E00123B0
:100B300000E000237A6903210A40920093403A6959
:100B400013433B6135497B699B0802339B003A693B
:100B50005A50364B1B683B61FB68DA433B691340D4
:100B60003B613B685A6880235B02134003D03A69BB
:100B7000FB6813433B612D4B3A691A602B4B5B6852
:100B80003B61FB68DA433B6913403B613B685A6851
:100B900080239B02134003D03A69FB6813433B61F7
:100BA000224B3A695A60214B9B683B61FB68DA43F0
:100BB0003B6913403B613B685A6880235B031340E9
:100BC00003D03A69FB6813433B61184B3A699A605A
:100BD000164BDB683B61FB68DA433B6913403B61C2
:100BE0003B685A6880239B03134003D03A69FB6833
:100BF00013433B610D4B3A69DA607B6901337B61DA
:100C00003B681A687B69DA40131E00D0A8E6C0462C
:100C1000BD4606B080BDC046001002400000014045
:100C20000004004800080048000C0048000401408F
:100C300080B584B000AF78600A00BB1C1A807B6866
:100C40001B69BA1C1288134004D00F23FB18012221
:100C50001A7003E00F23FB1800221A700F23FB18F1
:100C60001B781800BD4604B080BD80B582B000AFCF
:100C7000786008001100BB1C021C1A807B1C0A1C37
:100C80001A707B1C1B78002B04D0BB1C1A887B6855
:100C90009A6103E0BB1C1A887B689A62C046BD4615
:100CA00002B080BD80B582B000AF78600A00BB1C86
:100CB0001A807B685B69BA1C1288134005D0BB1C84
:100CC0001B881A047B689A6103E0BB1C1A887B6846
:100CD0009A61C046BD4602B080BD000080B582B0BA
:100CE00000AF0200BB1D1A80094B5B69BA1D128858
:100CF000134008D0064BBA1D12885A61BB1D1B88D1
:100D00001800FFF79BFBC046BD4602B080BDC04641
:100D10000004014080B588B000AF78607B68002B8C
:100D200001D1012303E37B681B680122134000D13A
:100D30008DE0C44B5B680C221340042B0ED0C14BDA
:100D40005B680C221340082B16D1BE4B5A688023D7
:100D50005B021A4080235B029A420DD1B94B1A689C
:100D600080239B02134000D170E07B685B68002BFE
:100D700000D06BE00123DAE27B685B68012B07D1CE
:100D8000B04B1A68AF4B802149020A431A602FE02A
:100D90007B685B68002B0CD1AA4B1A68A94BAA4947
:100DA0000A401A60A74B1A68A64BA8490A401A6065
:100DB0001EE07B685B68052B0ED1A24B1A68A14B25
:100DC0008021C9020A431A609E4B1A689D4B8021FC
:100DD00049020A431A600BE09A4B1A68994B9A49E8
:100DE0000A401A60974B1A68964B98490A401A6055
:100DF0007B685B68002B14D0FFF7A0FC0300BB618D
:100E000008E0FFF79BFC0200BB69D31A642B01D9F1
:100E100003238CE28B4B1A6880239B021340F0D093
:100E200015E0FFF78BFC0300BB6108E0FFF786FCD1
:100E30000200BB69D31A642B01D9032377E2814BEB
:100E40001A6880239B021340F0D100E0C0467B6803
:100E50001B680222134000D169E07A4B5B680C22C8
:100E600013400BD0774B5B680C221340082B1CD12E
:100E7000744B5A6880235B02134016D1714B1B6878
:100E80000222134005D07B68DB68012B01D00123CF
:100E90004DE26C4B1B68F822934319007B681B6979
:100EA000DA00684B0A431A6041E07B68DB68002B7C
:100EB00024D0644B1A68634B01210A431A60FFF780
:100EC0003DFC0300BB6108E0FFF738FC0200BB6992
:100ED000D31A022B01D9032329E25A4B1B680222A1
:100EE0001340F1D0574B1B68F822934319007B68DD
:100EF0001B69DA00534B0A431A6018E0514B1A6819
:100F0000504B01218A431A60FFF718FC0300BB61B4
:100F100008E0FFF713FC0200BB69D31A022B01D9CA
:100F2000032304E2474B1B6802221340F1D17B6884
:100F30001B680822134036D07B68DB69002B19D070
:100F4000404B5A6A3F4B01210A435A62FFF7F6FBB6
:100F50000300BB6108E0FFF7F1FB0200BB69D31A95
:100F6000022B01D90323E2E1364B5B6A02221340D4
:100F7000F1D018E0334B5A6A324B01218A435A624E
:100F8000FFF7DCFB0300BB6108E0FFF7D7FB0200C3
:100F9000BB69D31A022B01D90323C8E1294B5B6A31
:100FA00002221340F1D17B681B680422134000D158
:100FB000B6E01F23FB1800221A70224BDA69802347
:100FC0005B05134011D11F4BDA691E4B8021490587
:100FD0000A43DA611B4BDA6980235B051340FB602F
:100FE000FB681F23FB1801221A70194B1A68802313
:100FF0005B0013401AD1164B1A68154B802149002B
:101000000A431A60FFF79AFB0300BB6108E0FFF791
:1010100095FB0200BB69D31A642B01D9032386E137
:101020000B4B1A6880235B001340F0D07B689B68F1
:10103000012B0FD1034B1A6A024B01210A431A629A
:1010400036E0C04600100240FFFFFEFFFFFFFBFF3F
:10105000007000407B689B68002B0CD1B64B1A6A6D
:10106000B54B01218A431A62B34B1A6AB24B042171
:101070008A431A621CE07B689B68052B0CD1AE4B3F
:101080001A6AAD4B04210A431A62AB4B1A6AAA4B87
:1010900001210A431A620BE0A74B1A6AA64B0121F1
:1010A0008A431A62A44B1A6AA34B04218A431A6228
:1010B0007B689B68002B14D0FFF740FB0300BB61EB
:1010C00009E0FFF73BFB0200BB69D31A9B4A93423E
:1010D00001D903232BE1984B1B6A02221340F0D065
:1010E00013E0FFF72BFB0300BB6109E0FFF726FBD2
:1010F0000200BB69D31A914A934201D9032316E136
:101100008D4B1B6A02221340F0D11F23FB181B7862
:10111000012B05D1884BDA69874B89490A40DA618E
:101120007B681B681022134063D07B685B69012BCE
:101130002AD1814B5A6B804B04210A435A637E4B60
:101140005A6B7D4B01210A435A63FFF7F7FA0300FC
:10115000BB6108E0FFF7F2FA0200BB69D31A022B69
:1011600001D90323E3E0744B5B6B02221340F1D0FF
:10117000714B5B6BF822934319007B689B69DA0023
:101180006D4B0A435A6334E07B685B69053311D1C8
:10119000694B5A6B684B04218A435A63664B5B6BFD
:1011A000F822934319007B689B69DA00624B0A437B
:1011B0005A631EE0604B5A6B5F4B04210A435A632B
:1011C0005D4B5A6B5C4B01218A435A63FFF7B6FAB9
:1011D0000300BB6108E0FFF7B1FA0200BB69D31A54
:1011E000022B01D90323A2E0534B5B6B0222134075
:1011F000F1D17B681B6A002B00D197E04E4B5B68F6
:101200000C221340082B00D16BE07B681B6A022B79
:101210004CD1494B1A68484B4A490A401A60FFF7BB
:101220008DFA0300BB6108E0FFF788FA0200BB6992
:10123000D31A022B01D9032379E03F4B1A6880238C
:101240009B041340F0D13C4BDB6A0F2293431900FF
:101250007B68DA6A384B0A43DA62374B5B683A4A92
:10126000134019007B689A6A7B685B6A1A43324BA9
:101270000A435A60304B1A682F4B802149040A43B5
:101280001A60FFF75BFA0300BB6108E0FFF756FA4C
:101290000200BB69D31A022B01D9032347E0264B76
:1012A0001A6880239B041340F0D03FE0224B1A6859
:1012B000214B24490A401A60FFF740FA0300BB6142
:1012C00008E0FFF73BFA0200BB69D31A022B01D9F1
:1012D00003232CE0184B1A6880239B041340F0D1A1
:1012E00024E07B681B6A012B01D101231FE0124B14
:1012F0005B687B61104BDB6A3B617A6980235B0230
:101300001A407B685B6A9A420ED13B690F221A40F1
:101310007B68DB6A9A4207D17A69F0239B031A4003
:101320007B689B6A9A4201D0012300E000231800E9
:10133000BD4608B080BDC0460010024088130000C2
:10134000FFFFFFEFFFFFFFFEFFFFC2FF80B584B08E
:1013500000AF786039607B68002B01D10123B3E0D6
:101360005B4B1B68012213403A689A4211D9584BD3
:101370001B68012293431900554B3A680A431A60CF
:10138000534B1B68012213403A689A4201D0012353
:101390009AE07B681B680222134015D07B681B68AB
:1013A0000422134006D04B4B5A684A4BE021C90037
:1013B0000A435A60474B5B68F022934319007B68ED
:1013C0009A68444B0A435A607B681B6801221340A9
:1013D00040D07B685B68012B07D13E4B1A688023A5
:1013E0009B02134014D101236EE07B685B68022BE3
:1013F00007D1384B1A6880239B04134008D101237E
:1014000062E0344B1B680222134001D101235BE0F0
:10141000304B5B680322934319007B685A682D4B5D
:101420000A435A60FFF78AF90300FB6009E0FFF7FF
:1014300085F90200FB68D31A274A934201D9032396
:1014400042E0244B5B680C221A407B685B689B007F
:101450009A42ECD11E4B1B68012213403A689A4213
:1014600011D21B4B1B68012293431900184B3A6899
:101470000A431A60164B1B68012213403A689A42CD
:1014800001D0012320E07B681B680422134009D0AF
:10149000104B5B68114A134019007B68DA680D4BEA
:1014A0000A435A6000F020F801000A4B5B681B09F0
:1014B0000F2213400A4AD35C0A00DA40094B1A6033
:1014C0000020FFF7F5F800231800BD4604B080BDEA
:1014D000002002400010024088130000FFF8FFFFC8
:1014E000581C00080000002090B58FB000AF1423F6
:1014F000FB182B4A13CA13C312681A603B1D294AF2
:1015000013CA13C312681A600023FB620023BB6274
:1015100000237B6300237B6200233B63224B5B68D9
:10152000FB62FB6A0C221340042B02D0082B03D071
:101530002DE01E4B3B632DE0FB6A9B0C0F221340FA
:101540001422BA18D35C7B62174BDB6A0F2213405C
:101550003A1DD35CBB62FA6A80235B02134009D058
:10156000B96A1248FEF7D0FD03001A007B6A5343A4
:101570007B6309E0796A0A005201521A93019B1AAF
:10158000DB005B181B027B637B6B3B6302E0074B5A
:101590003B63C0463B6B1800BD460FB090BDC046D4
:1015A000381C0008481C00080010024000127A0095
:1015B00080B582B000AF78607B68002B01D1012339
:1015C0001EE07B683D229B5CDBB2002B07D17B6871
:1015D0003C22002199547B681800FFF70BF87B68C8
:1015E0003D22022199547B681A687B6804331900F4
:1015F000100000F00DF97B683D2201219954002371
:101600001800BD4602B080BD80B584B000AF7860E0
:1016100039607B683C229B5C012B01D10223ABE04B
:101620007B683C22012199547B683D220221995418
:101630007B681B689B68FB60FB6877229343FB60B9
:10164000FB684F4A1340FB607B681B68FA689A602E
:101650003B681B68402B00D16BE00ED8102B00D1EB
:1016600077E003D8002B00D173E07CE0202B00D181
:101670006FE0302B00D16CE075E0702B0ED004D8F9
:10168000502B36D0602B44D06DE080225201934223
:1016900068D080229201934217D064E07B6818687A
:1016A0003B6899683B685A683B68DB6800F01AFA47
:1016B0007B681B689B68FB60FB6877221343FB60B9
:1016C0007B681B68FA689A604DE07B6818683B6825
:1016D00099683B685A683B68DB6800F003FA7B68EE
:1016E0001B689A687B681B688021C9010A439A605D
:1016F00039E07B6818683B6859683B68DB681A000A
:1017000000F076F97B681B685021180000F0D0F9D2
:1017100029E07B6818683B6859683B68DB681A00F9
:1017200000F094F97B681B686021180000F0C0F994
:1017300019E07B6818683B6859683B68DB681A00E9
:1017400000F056F97B681B684021180000F0B0F9E2
:1017500009E07B681A683B681B681900100000F0FC
:10176000A7F900E0C0467B683D22012199547B68BF
:101770003C220021995400231800BD4604B080BDCE
:10178000FF00FFFF80B582B000AF786039607B68F2
:101790003C229B5C012B01D1022332E07B683C227E
:1017A000012199547B683D22022199543A687B6853
:1017B0001100180000F098F8031E09D07B683D2244
:1017C000012199547B683C2200219954012318E09F
:1017D0007B681B68DA687B681B6840218A43DA6093
:1017E0007B681B68DA687B681B6808490A40DA6016
:1017F0007B683D22012199547B683C220021995449
:1018000000231800BD4602B080BDC046FFBFFFFFE9
:1018100080B584B000AF786039607B681B68FB607E
:101820007B682B4A934203D07B682A4A934208D1B3
:10183000FB6870229343FB603B685B68FA68134364
:10184000FB607B68224A93420FD07B68214A934217
:101850000BD07B68204A934207D07B681F4A934293
:1018600003D07B681E4A934208D1FB681D4A13408F
:10187000FB603B68DB68FA681343FB60FB6880220F
:1018800093431A003B685B691343FB607B68FA680B
:101890001A603B689A687B68DA623B681A687B6802
:1018A0009A627B680A4A934207D07B680B4A93424C
:1018B00003D07B680A4A934203D13B681A697B686C
:1018C0001A637B6801225A61C046BD4604B080BDE0
:1018D000002C014000040040002000400044014072
:1018E00000480140FFFCFFFF80B586B000AF786084
:1018F00039607B681B689B687B617B6970229343BE
:101900007B613B685B687A6913437B617B69072273
:1019100093437B613B681B687A6913437B617B68F7
:101920001B687A699A603B685B68302B5AD006D88E
:10193000102B57D0202B55D0002B53D053E0502BD9
:101940003CD002D8402B10D04DE0602B40D0702B03
:1019500000D048E07B6818683B68D9683B689A68A3
:101960003B681B6900F0BEF83DE03B681B68052B37
:1019700001D1012338E07B681B681B6A3B617B68EF
:101980001B681A6A7B681B6801218A431A627B689C
:101990001B689B69FB60FB68F0229343FB603B681C
:1019A0001B691B01FA681343FB607B681B68FA68BC
:1019B0009A617B681B683A691A6214E07B68186850
:1019C0003B6899683B681B691A0000F011F80AE04F
:1019D0007B6818683B6899683B681B691A0000F0CF
:1019E00035F800E0C04600231800BD4606B080BDB3
:1019F00080B586B000AFF860B9607A60FB681B6A9A
:101A00007B61FB681B6A012293431A00FB681A6220
:101A1000FB689B693B613B69F02293433B617B68B8
:101A20001B013A6913433B617B690A2293437B6143
:101A30007A69BB6813437B61FB683A699A61FB680A
:101A40007A691A62C046BD4606B080BD80B586B0D0
:101A500000AFF860B9607A60FB681B6A102293439C
:101A60001A00FB681A62FB689B697B61FB681B6A52
:101A70003B617B690D4A13407B617B681B037A697C
:101A800013437B613B69A02293433B61BB681B010D
:101A90003A6913433B61FB687A699A61FB683A696A
:101AA0001A62C046BD4606B080BDC046FF0FFFFFAC
:101AB00080B584B000AF786039607B689B68FB605C
:101AC000FB6870229343FB603A68FB68134307226C
:101AD0001343FB607B68FA689A60C046BD4604B059
:101AE00080BD000080B586B000AFF860B9607A6054
:101AF0003B60FB689B687B617B69094A13407B61A3
:101B00003B681A027B681A43BB6813437A69134324
:101B10007B61FB687A699A60C046BD4606B080BDAD
:101B2000FF00FFFF80B584B000AF786039607B684C
:101B30003C229B5C012B01D102233CE07B683C22D0
:101B4000012199547B683D22022199547B681B68CE
:101B50005B68FB607B681B689B68BB60FB687022EE
:101B60009343FB603B681B68FA681343FB607B6828
:101B70001B68FA685A607B681B68114A934204D05C
:101B80007B681B680F4A93420CD1BB688022934349
:101B9000BB603B685B68BA681343BB607B681B68CB
:101BA000BA689A607B683D22012199547B683C2287
:101BB0000021995400231800BD4604B080BDC046E2
:101BC000002C01400004004070B500260C4D0D4C67
:101BD000641BA410A64209D1002600F021F80A4D8A
:101BE0000A4C641BA410A64205D170BDB300EB588B
:101BF00098470136EEE7B300EB5898470136F2E715
:101C0000681C0008681C0008681C00086C1C0008A0
:101C100003001218934200D1704719700133F9E79D
:101C2000F8B5C046F8BC08BC9E467047F8B5C0463B
:081C3000F8BC08BC9E46704799
:101C380002030405060708090A0B0C0D0E0F101005
:101C48000102030405060708090A0B0C0D0E0F1004
:101C58000000000000000000010203040607080954
:041C6800E900000887
:041C6C00C1000008AB
:0C1C700000127A000400000001000000D7
:0400000508000635B4
:00000001FF
